{
  "contractName": "ERC721Enumerable",
  "abi": [
    {
      "anonymous": false,
      "inputs": [
        {
          "indexed": true,
          "internalType": "address",
          "name": "from",
          "type": "address"
        },
        {
          "indexed": true,
          "internalType": "address",
          "name": "to",
          "type": "address"
        },
        {
          "indexed": true,
          "internalType": "uint256",
          "name": "tokenId",
          "type": "uint256"
        }
      ],
      "name": "Transfer",
      "type": "event"
    },
    {
      "inputs": [
        {
          "internalType": "address",
          "name": "_owner",
          "type": "address"
        }
      ],
      "name": "balanceOf",
      "outputs": [
        {
          "internalType": "uint256",
          "name": "",
          "type": "uint256"
        }
      ],
      "stateMutability": "view",
      "type": "function"
    },
    {
      "inputs": [
        {
          "internalType": "uint256",
          "name": "_tokenId",
          "type": "uint256"
        }
      ],
      "name": "ownerOf",
      "outputs": [
        {
          "internalType": "address",
          "name": "",
          "type": "address"
        }
      ],
      "stateMutability": "view",
      "type": "function"
    },
    {
      "inputs": [
        {
          "internalType": "uint256",
          "name": "index",
          "type": "uint256"
        }
      ],
      "name": "tokenByIndex",
      "outputs": [
        {
          "internalType": "uint256",
          "name": "",
          "type": "uint256"
        }
      ],
      "stateMutability": "view",
      "type": "function"
    },
    {
      "inputs": [
        {
          "internalType": "address",
          "name": "owner",
          "type": "address"
        },
        {
          "internalType": "uint256",
          "name": "index",
          "type": "uint256"
        }
      ],
      "name": "tokenOfOwnerByIndex",
      "outputs": [
        {
          "internalType": "uint256",
          "name": "",
          "type": "uint256"
        }
      ],
      "stateMutability": "view",
      "type": "function"
    },
    {
      "inputs": [],
      "name": "totalSupply",
      "outputs": [
        {
          "internalType": "uint256",
          "name": "",
          "type": "uint256"
        }
      ],
      "stateMutability": "view",
      "type": "function"
    }
  ],
  "bytecode": "0x608060405234801561001057600080fd5b50610738806100206000396000f3fe608060405234801561001057600080fd5b50600436106100575760003560e01c806318160ddd1461005c5780632f745c591461007a5780634f6ccce7146100aa5780636352211e146100da57806370a082311461010a575b600080fd5b61006461013a565b60405161007191906103ea565b60405180910390f35b610094600480360381019061008f9190610494565b610147565b6040516100a191906103ea565b60405180910390f35b6100c460048036038101906100bf91906104d4565b6101f7565b6040516100d191906103ea565b60405180910390f35b6100f460048036038101906100ef91906104d4565b610268565b6040516101019190610510565b60405180910390f35b610124600480360381019061011f919061052b565b610319565b60405161013191906103ea565b60405180910390f35b6000600280549050905090565b600061015283610319565b8210610193576040517f08c379a000000000000000000000000000000000000000000000000000000000815260040161018a906105b5565b60405180910390fd5b600460008473ffffffffffffffffffffffffffffffffffffffff1673ffffffffffffffffffffffffffffffffffffffff16815260200190815260200160002082815481106101e4576101e36105d5565b5b9060005260206000200154905092915050565b600061020161013a565b8210610242576040517f08c379a000000000000000000000000000000000000000000000000000000000815260040161023990610650565b60405180910390fd5b60028281548110610256576102556105d5565b5b90600052602060002001549050919050565b60008060008084815260200190815260200160002060009054906101000a900473ffffffffffffffffffffffffffffffffffffffff169050600073ffffffffffffffffffffffffffffffffffffffff168173ffffffffffffffffffffffffffffffffffffffff161415610310576040517f08c379a0000000000000000000000000000000000000000000000000000000008152600401610307906106e2565b60405180910390fd5b80915050919050565b60008073ffffffffffffffffffffffffffffffffffffffff168273ffffffffffffffffffffffffffffffffffffffff16141561038a576040517f08c379a0000000000000000000000000000000000000000000000000000000008152600401610381906106e2565b60405180910390fd5b600160008373ffffffffffffffffffffffffffffffffffffffff1673ffffffffffffffffffffffffffffffffffffffff168152602001908152602001600020549050919050565b6000819050919050565b6103e4816103d1565b82525050565b60006020820190506103ff60008301846103db565b92915050565b600080fd5b600073ffffffffffffffffffffffffffffffffffffffff82169050919050565b60006104358261040a565b9050919050565b6104458161042a565b811461045057600080fd5b50565b6000813590506104628161043c565b92915050565b610471816103d1565b811461047c57600080fd5b50565b60008135905061048e81610468565b92915050565b600080604083850312156104ab576104aa610405565b5b60006104b985828601610453565b92505060206104ca8582860161047f565b9150509250929050565b6000602082840312156104ea576104e9610405565b5b60006104f88482850161047f565b91505092915050565b61050a8161042a565b82525050565b60006020820190506105256000830184610501565b92915050565b60006020828403121561054157610540610405565b5b600061054f84828501610453565b91505092915050565b600082825260208201905092915050565b7f6f776e657220696e646578206973206f7574206f6620626f756e647321000000600082015250565b600061059f601d83610558565b91506105aa82610569565b602082019050919050565b600060208201905081810360008301526105ce81610592565b9050919050565b7f4e487b7100000000000000000000000000000000000000000000000000000000600052603260045260246000fd5b7f676c6f62616c20696e646578206973206f7574206f6620626f756e6473210000600082015250565b600061063a601e83610558565b915061064582610604565b602082019050919050565b600060208201905081810360008301526106698161062d565b9050919050565b7f6f776e657220717565727920666f72206e6f6e2d6578697374656e7420746f6b60008201527f656e000000000000000000000000000000000000000000000000000000000000602082015250565b60006106cc602283610558565b91506106d782610670565b604082019050919050565b600060208201905081810360008301526106fb816106bf565b905091905056fea2646970667358221220b015c0f5c6b39254f11b30f8afb3ecb9b99d3aabca0e49784f2c29b3d2ce491464736f6c634300080b0033",
  "immutableReferences": {},
  "source": "// SPDX-License-Identifier: MIT\npragma solidity >=0.4.22 <0.9.0;\n\nimport './ERC721.sol';\n\ncontract ERC721Enumerable is ERC721 {\n\n    uint256[] private _allTokens;\n\n    // mapping from tokenId to position in _allTokens array\n    mapping(uint256 => uint256) private _allTokensIndex;\n    // mapping of owner to list of all owner token ids\n    mapping(address => uint256[]) private _ownedTokens;\n    // mapping from token ID to index of the owner tokens list\n    mapping(uint256 => uint256) private _ownedTokensIndex;\n\n    // function tokenByIndex(uint256 _index) external view returns (uint256);\n\n    // function tokenOfOwnerByIndex(address _owner, uint256 _index) external view returns (uint256);\n\n    function _mint(address to, uint256 tokenId) internal override(ERC721) {\n        super._mint(to, tokenId);\n        // 1. add tokens to the owner\n        // 2. add tokens to our totalsupply - to allTokens\n\n        _addTokensToAllTokenEnumeration(tokenId);\n        _addTokensToOwnerEnumeration(to, tokenId);\n    }\n\n    // add tokens to the _allTokens array and set the position of the indexes\n    function _addTokensToAllTokenEnumeration(uint256 tokenId) private {\n        _allTokensIndex[tokenId] = _allTokens.length;\n        _allTokens.push(tokenId);\n    }\n\n    function _addTokensToOwnerEnumeration(address to, uint256 tokenId) private {\n        // 1. add address and tokenId to the _ownedTokens\n        // 2. ownedTokensIndex tokenId set to addresss of ownedTokens position\n        // 3. we want to execute the function with minting\n        _ownedTokensIndex[tokenId] = _ownedTokens[to].length;\n        _ownedTokens[to].push(tokenId);\n    }\n\n    // two functions - one that returns tokenByIndex and\n    // another one that returns tokenByOwnerIndex\n\n    function tokenByIndex(uint256 index) public view returns (uint256) {\n        // make sure that the index is not out of bounds of the total supply\n        require(index < totalSupply(), 'global index is out of bounds!');\n        return _allTokens[index];\n    }\n\n    function tokenOfOwnerByIndex(address owner, uint index) public view returns (uint256) {\n        require(index < balanceOf(owner), 'owner index is out of bounds!');\n        return _ownedTokens[owner][index];\n    }\n\n    // return the total supply of the _allTokens array\n    function totalSupply() public view returns (uint256) {\n        return _allTokens.length;\n    }\n}",
  "sourcePath": "/Users/jk/Documents/GitHub/nft-marketplace/src/contracts/ERC721Enumerable.sol",
  "compiler": {
    "name": "solc",
    "version": "0.8.11+commit.d7f03943.Emscripten.clang"
  },
  "schemaVersion": "3.4.3",
  "updatedAt": "2022-01-18T07:19:21.473Z",
  "devdoc": {
    "kind": "dev",
    "methods": {
      "balanceOf(address)": {
        "details": "NFTs assigned to the zero address are considered invalid, and this  function throws for queries about the zero address.",
        "params": {
          "_owner": "An address for whom to query the balance"
        },
        "returns": {
          "_0": "The number of NFTs owned by `_owner`, possibly zero"
        }
      },
      "ownerOf(uint256)": {
        "details": "NFTs assigned to zero address are considered invalid, and queries  about them do throw.",
        "params": {
          "_tokenId": "The identifier for an NFT"
        },
        "returns": {
          "_0": "The address of the owner of the NFT"
        }
      }
    },
    "version": 1
  },
  "userdoc": {
    "kind": "user",
    "methods": {
      "balanceOf(address)": {
        "notice": "Count all NFTs assigned to an owner"
      },
      "ownerOf(uint256)": {
        "notice": "Find the owner of an NFT"
      }
    },
    "version": 1
  }
}