{
  "contractName": "KryptoBird",
  "abi": [
    {
      "inputs": [],
      "stateMutability": "nonpayable",
      "type": "constructor"
    },
    {
      "anonymous": false,
      "inputs": [
        {
          "indexed": true,
          "internalType": "address",
          "name": "from",
          "type": "address"
        },
        {
          "indexed": true,
          "internalType": "address",
          "name": "to",
          "type": "address"
        },
        {
          "indexed": true,
          "internalType": "uint256",
          "name": "tokenId",
          "type": "uint256"
        }
      ],
      "name": "Transfer",
      "type": "event"
    },
    {
      "inputs": [
        {
          "internalType": "address",
          "name": "_owner",
          "type": "address"
        }
      ],
      "name": "balanceOf",
      "outputs": [
        {
          "internalType": "uint256",
          "name": "",
          "type": "uint256"
        }
      ],
      "stateMutability": "view",
      "type": "function",
      "constant": true
    },
    {
      "inputs": [
        {
          "internalType": "uint256",
          "name": "",
          "type": "uint256"
        }
      ],
      "name": "kryptoBirdz",
      "outputs": [
        {
          "internalType": "string",
          "name": "",
          "type": "string"
        }
      ],
      "stateMutability": "view",
      "type": "function",
      "constant": true
    },
    {
      "inputs": [],
      "name": "name",
      "outputs": [
        {
          "internalType": "string",
          "name": "",
          "type": "string"
        }
      ],
      "stateMutability": "view",
      "type": "function",
      "constant": true
    },
    {
      "inputs": [
        {
          "internalType": "uint256",
          "name": "_tokenId",
          "type": "uint256"
        }
      ],
      "name": "ownerOf",
      "outputs": [
        {
          "internalType": "address",
          "name": "",
          "type": "address"
        }
      ],
      "stateMutability": "view",
      "type": "function",
      "constant": true
    },
    {
      "inputs": [],
      "name": "symbol",
      "outputs": [
        {
          "internalType": "string",
          "name": "",
          "type": "string"
        }
      ],
      "stateMutability": "view",
      "type": "function",
      "constant": true
    },
    {
      "inputs": [
        {
          "internalType": "string",
          "name": "_kryptoBird",
          "type": "string"
        }
      ],
      "name": "mint",
      "outputs": [],
      "stateMutability": "nonpayable",
      "type": "function"
    }
  ],
  "bytecode": "0x60806040523480156200001157600080fd5b506040518060400160405280600a81526020017f4b727970746f42697264000000000000000000000000000000000000000000008152506040518060400160405280600681526020017f4b424952445a00000000000000000000000000000000000000000000000000008152508181816000908051906020019062000098929190620000bc565b508060019080519060200190620000b1929190620000bc565b5050505050620001d1565b828054620000ca906200019b565b90600052602060002090601f016020900481019282620000ee57600085556200013a565b82601f106200010957805160ff19168380011785556200013a565b828001600101855582156200013a579182015b82811115620001395782518255916020019190600101906200011c565b5b5090506200014991906200014d565b5090565b5b80821115620001685760008160009055506001016200014e565b5090565b7f4e487b7100000000000000000000000000000000000000000000000000000000600052602260045260246000fd5b60006002820490506001821680620001b457607f821691505b60208210811415620001cb57620001ca6200016c565b5b50919050565b610f8080620001e16000396000f3fe608060405234801561001057600080fd5b50600436106100625760003560e01c806306fdde03146100675780636352211e1461008557806370a08231146100b557806393ab6e56146100e557806395d89b4114610115578063d85d3d2714610133575b600080fd5b61006f61014f565b60405161007c91906108c5565b60405180910390f35b61009f600480360381019061009a9190610931565b6101e1565b6040516100ac919061099f565b60405180910390f35b6100cf60048036038101906100ca91906109e6565b610293565b6040516100dc9190610a22565b60405180910390f35b6100ff60048036038101906100fa9190610931565b61034b565b60405161010c91906108c5565b60405180910390f35b61011d6103f7565b60405161012a91906108c5565b60405180910390f35b61014d60048036038101906101489190610b72565b610489565b005b60606000805461015e90610bea565b80601f016020809104026020016040519081016040528092919081815260200182805461018a90610bea565b80156101d75780601f106101ac576101008083540402835291602001916101d7565b820191906000526020600020905b8154815290600101906020018083116101ba57829003601f168201915b5050505050905090565b6000806002600084815260200190815260200160002060009054906101000a900473ffffffffffffffffffffffffffffffffffffffff169050600073ffffffffffffffffffffffffffffffffffffffff168173ffffffffffffffffffffffffffffffffffffffff16141561028a576040517f08c379a000000000000000000000000000000000000000000000000000000000815260040161028190610c8e565b60405180910390fd5b80915050919050565b60008073ffffffffffffffffffffffffffffffffffffffff168273ffffffffffffffffffffffffffffffffffffffff161415610304576040517f08c379a00000000000000000000000000000000000000000000000000000000081526004016102fb90610c8e565b60405180910390fd5b600360008373ffffffffffffffffffffffffffffffffffffffff1673ffffffffffffffffffffffffffffffffffffffff168152602001908152602001600020549050919050565b6004818154811061035b57600080fd5b90600052602060002001600091509050805461037690610bea565b80601f01602080910402602001604051908101604052809291908181526020018280546103a290610bea565b80156103ef5780601f106103c4576101008083540402835291602001916103ef565b820191906000526020600020905b8154815290600101906020018083116103d257829003601f168201915b505050505081565b60606001805461040690610bea565b80601f016020809104026020016040519081016040528092919081815260200182805461043290610bea565b801561047f5780601f106104545761010080835404028352916020019161047f565b820191906000526020600020905b81548152906001019060200180831161046257829003601f168201915b5050505050905090565b6005816040516104999190610cea565b908152602001604051809103902060009054906101000a900460ff16156104f5576040517f08c379a00000000000000000000000000000000000000000000000000000000081526004016104ec90610d73565b60405180910390fd5b600481908060018154018082558091505060019003906000526020600020016000909190919091509080519060200190610530929190610789565b50600060016004805490506105459190610dc2565b90506105513382610555565b5050565b600073ffffffffffffffffffffffffffffffffffffffff168273ffffffffffffffffffffffffffffffffffffffff1614156105c5576040517f08c379a00000000000000000000000000000000000000000000000000000000081526004016105bc90610e68565b60405180910390fd5b6105ce81610717565b1561060e576040517f08c379a000000000000000000000000000000000000000000000000000000000815260040161060590610ed4565b60405180910390fd5b816002600083815260200190815260200160002060006101000a81548173ffffffffffffffffffffffffffffffffffffffff021916908373ffffffffffffffffffffffffffffffffffffffff1602179055506001600360008473ffffffffffffffffffffffffffffffffffffffff1673ffffffffffffffffffffffffffffffffffffffff16815260200190815260200160002060008282546106b09190610ef4565b92505081905550808273ffffffffffffffffffffffffffffffffffffffff16600073ffffffffffffffffffffffffffffffffffffffff167fddf252ad1be2c89b69c2b068fc378daa952ba7f163c4a11628f55a4df523b3ef60405160405180910390a45050565b6000806002600084815260200190815260200160002060009054906101000a900473ffffffffffffffffffffffffffffffffffffffff169050600073ffffffffffffffffffffffffffffffffffffffff168173ffffffffffffffffffffffffffffffffffffffff161415915050919050565b82805461079590610bea565b90600052602060002090601f0160209004810192826107b757600085556107fe565b82601f106107d057805160ff19168380011785556107fe565b828001600101855582156107fe579182015b828111156107fd5782518255916020019190600101906107e2565b5b50905061080b919061080f565b5090565b5b80821115610828576000816000905550600101610810565b5090565b600081519050919050565b600082825260208201905092915050565b60005b8381101561086657808201518184015260208101905061084b565b83811115610875576000848401525b50505050565b6000601f19601f8301169050919050565b60006108978261082c565b6108a18185610837565b93506108b1818560208601610848565b6108ba8161087b565b840191505092915050565b600060208201905081810360008301526108df818461088c565b905092915050565b6000604051905090565b600080fd5b600080fd5b6000819050919050565b61090e816108fb565b811461091957600080fd5b50565b60008135905061092b81610905565b92915050565b600060208284031215610947576109466108f1565b5b60006109558482850161091c565b91505092915050565b600073ffffffffffffffffffffffffffffffffffffffff82169050919050565b60006109898261095e565b9050919050565b6109998161097e565b82525050565b60006020820190506109b46000830184610990565b92915050565b6109c38161097e565b81146109ce57600080fd5b50565b6000813590506109e0816109ba565b92915050565b6000602082840312156109fc576109fb6108f1565b5b6000610a0a848285016109d1565b91505092915050565b610a1c816108fb565b82525050565b6000602082019050610a376000830184610a13565b92915050565b600080fd5b600080fd5b7f4e487b7100000000000000000000000000000000000000000000000000000000600052604160045260246000fd5b610a7f8261087b565b810181811067ffffffffffffffff82111715610a9e57610a9d610a47565b5b80604052505050565b6000610ab16108e7565b9050610abd8282610a76565b919050565b600067ffffffffffffffff821115610add57610adc610a47565b5b610ae68261087b565b9050602081019050919050565b82818337600083830152505050565b6000610b15610b1084610ac2565b610aa7565b905082815260208101848484011115610b3157610b30610a42565b5b610b3c848285610af3565b509392505050565b600082601f830112610b5957610b58610a3d565b5b8135610b69848260208601610b02565b91505092915050565b600060208284031215610b8857610b876108f1565b5b600082013567ffffffffffffffff811115610ba657610ba56108f6565b5b610bb284828501610b44565b91505092915050565b7f4e487b7100000000000000000000000000000000000000000000000000000000600052602260045260246000fd5b60006002820490506001821680610c0257607f821691505b60208210811415610c1657610c15610bbb565b5b50919050565b7f6f776e657220717565727920666f72206e6f6e2d6578697374656e7420746f6b60008201527f656e000000000000000000000000000000000000000000000000000000000000602082015250565b6000610c78602283610837565b9150610c8382610c1c565b604082019050919050565b60006020820190508181036000830152610ca781610c6b565b9050919050565b600081905092915050565b6000610cc48261082c565b610cce8185610cae565b9350610cde818560208601610848565b80840191505092915050565b6000610cf68284610cb9565b915081905092915050565b7f4572726f72202d206b727970746f4269726420616c726561647920657869737460008201527f7300000000000000000000000000000000000000000000000000000000000000602082015250565b6000610d5d602183610837565b9150610d6882610d01565b604082019050919050565b60006020820190508181036000830152610d8c81610d50565b9050919050565b7f4e487b7100000000000000000000000000000000000000000000000000000000600052601160045260246000fd5b6000610dcd826108fb565b9150610dd8836108fb565b925082821015610deb57610dea610d93565b5b828203905092915050565b7f4552433732313a206d696e74696e6720746f20746865207a65726f206164647260008201527f6573730000000000000000000000000000000000000000000000000000000000602082015250565b6000610e52602383610837565b9150610e5d82610df6565b604082019050919050565b60006020820190508181036000830152610e8181610e45565b9050919050565b7f4552433732313a20746f6b656e20616c7265616479206d696e74656400000000600082015250565b6000610ebe601c83610837565b9150610ec982610e88565b602082019050919050565b60006020820190508181036000830152610eed81610eb1565b9050919050565b6000610eff826108fb565b9150610f0a836108fb565b9250827fffffffffffffffffffffffffffffffffffffffffffffffffffffffffffffffff03821115610f3f57610f3e610d93565b5b82820190509291505056fea264697066735822122031d37b7d0019ea91a2d5afcde00da8b97cd92108f85a4a7116bee5b31dc9520264736f6c634300080b0033",
  "immutableReferences": {},
  "source": "// SPDX-License-Identifier: MIT\npragma solidity >=0.4.22 <0.9.0;\n\nimport './ERC721Connector.sol';\n\ncontract KryptoBird is ERC721Connector {\n\n    // array to store our nfts\n    string [] public kryptoBirdz;\n\n    mapping(string => bool) _kryptoBirdzExists;\n    \n    function mint(string memory _kryptoBird) public {\n        require(!_kryptoBirdzExists[_kryptoBird], 'Error - kryptoBird already exists');\n        // this is deprecated - uint _id = KryptoBirdz.push(_kryptoBird);\n        kryptoBirdz.push(_kryptoBird);\n        uint _id = kryptoBirdz.length - 1;\n        // .push no longer returns the length but a ref to the added element\n        _mint(msg.sender, _id);\n    }\n    \n    // initialize this contract to inherit name and symbol from erc732metadata\n    // so that the name is KryptoBird and the symbol is KBIRDZ\n    \n    constructor() ERC721Connector('KryptoBird', 'KBIRDZ') {\n\n    }\n}",
  "sourcePath": "/Users/jk/Documents/GitHub/nft-marketplace/src/contracts/KryptoBirdz.sol",
  "compiler": {
    "name": "solc",
    "version": "0.8.11+commit.d7f03943.Emscripten.clang"
  },
  "schemaVersion": "3.4.3",
  "updatedAt": "2022-01-18T06:10:18.316Z",
  "networkType": "ethereum",
  "devdoc": {
    "kind": "dev",
    "methods": {
      "balanceOf(address)": {
        "details": "NFTs assigned to the zero address are considered invalid, and this  function throws for queries about the zero address.",
        "params": {
          "_owner": "An address for whom to query the balance"
        },
        "returns": {
          "_0": "The number of NFTs owned by `_owner`, possibly zero"
        }
      },
      "ownerOf(uint256)": {
        "details": "NFTs assigned to zero address are considered invalid, and queries  about them do throw.",
        "params": {
          "_tokenId": "The identifier for an NFT"
        },
        "returns": {
          "_0": "The address of the owner of the NFT"
        }
      }
    },
    "version": 1
  },
  "userdoc": {
    "kind": "user",
    "methods": {
      "balanceOf(address)": {
        "notice": "Count all NFTs assigned to an owner"
      },
      "ownerOf(uint256)": {
        "notice": "Find the owner of an NFT"
      }
    },
    "version": 1
  }
}