{
  "contractName": "KryptoBird",
  "abi": [
    {
      "inputs": [],
      "stateMutability": "nonpayable",
      "type": "constructor"
    },
    {
      "anonymous": false,
      "inputs": [
        {
          "indexed": true,
          "internalType": "address",
          "name": "from",
          "type": "address"
        },
        {
          "indexed": true,
          "internalType": "address",
          "name": "to",
          "type": "address"
        },
        {
          "indexed": true,
          "internalType": "uint256",
          "name": "tokenId",
          "type": "uint256"
        }
      ],
      "name": "Transfer",
      "type": "event"
    },
    {
      "inputs": [
        {
          "internalType": "address",
          "name": "_owner",
          "type": "address"
        }
      ],
      "name": "balanceOf",
      "outputs": [
        {
          "internalType": "uint256",
          "name": "",
          "type": "uint256"
        }
      ],
      "stateMutability": "view",
      "type": "function",
      "constant": true
    },
    {
      "inputs": [
        {
          "internalType": "uint256",
          "name": "",
          "type": "uint256"
        }
      ],
      "name": "kryptoBirdz",
      "outputs": [
        {
          "internalType": "string",
          "name": "",
          "type": "string"
        }
      ],
      "stateMutability": "view",
      "type": "function",
      "constant": true
    },
    {
      "inputs": [],
      "name": "name",
      "outputs": [
        {
          "internalType": "string",
          "name": "",
          "type": "string"
        }
      ],
      "stateMutability": "view",
      "type": "function",
      "constant": true
    },
    {
      "inputs": [
        {
          "internalType": "uint256",
          "name": "_tokenId",
          "type": "uint256"
        }
      ],
      "name": "ownerOf",
      "outputs": [
        {
          "internalType": "address",
          "name": "",
          "type": "address"
        }
      ],
      "stateMutability": "view",
      "type": "function",
      "constant": true
    },
    {
      "inputs": [],
      "name": "symbol",
      "outputs": [
        {
          "internalType": "string",
          "name": "",
          "type": "string"
        }
      ],
      "stateMutability": "view",
      "type": "function",
      "constant": true
    },
    {
      "inputs": [],
      "name": "totalSupply",
      "outputs": [
        {
          "internalType": "uint256",
          "name": "",
          "type": "uint256"
        }
      ],
      "stateMutability": "view",
      "type": "function",
      "constant": true
    },
    {
      "inputs": [
        {
          "internalType": "string",
          "name": "_kryptoBird",
          "type": "string"
        }
      ],
      "name": "mint",
      "outputs": [],
      "stateMutability": "nonpayable",
      "type": "function"
    }
  ],
  "bytecode": "0x60806040523480156200001157600080fd5b506040518060400160405280600a81526020017f4b727970746f42697264000000000000000000000000000000000000000000008152506040518060400160405280600681526020017f4b424952445a00000000000000000000000000000000000000000000000000008152508181816000908051906020019062000098929190620000bc565b508060019080519060200190620000b1929190620000bc565b5050505050620001d1565b828054620000ca906200019b565b90600052602060002090601f016020900481019282620000ee57600085556200013a565b82601f106200010957805160ff19168380011785556200013a565b828001600101855582156200013a579182015b82811115620001395782518255916020019190600101906200011c565b5b5090506200014991906200014d565b5090565b5b80821115620001685760008160009055506001016200014e565b5090565b7f4e487b7100000000000000000000000000000000000000000000000000000000600052602260045260246000fd5b60006002820490506001821680620001b457607f821691505b60208210811415620001cb57620001ca6200016c565b5b50919050565b61100980620001e16000396000f3fe608060405234801561001057600080fd5b506004361061007d5760003560e01c806370a082311161005b57806370a08231146100ee57806393ab6e561461011e57806395d89b411461014e578063d85d3d271461016c5761007d565b806306fdde031461008257806318160ddd146100a05780636352211e146100be575b600080fd5b61008a610188565b604051610097919061094e565b60405180910390f35b6100a861021a565b6040516100b59190610989565b60405180910390f35b6100d860048036038101906100d391906109e4565b610227565b6040516100e59190610a52565b60405180910390f35b61010860048036038101906101039190610a99565b6102d9565b6040516101159190610989565b60405180910390f35b610138600480360381019061013391906109e4565b610391565b604051610145919061094e565b60405180910390f35b61015661043d565b604051610163919061094e565b60405180910390f35b61018660048036038101906101819190610bfb565b6104cf565b005b60606000805461019790610c73565b80601f01602080910402602001604051908101604052809291908181526020018280546101c390610c73565b80156102105780601f106101e557610100808354040283529160200191610210565b820191906000526020600020905b8154815290600101906020018083116101f357829003601f168201915b5050505050905090565b6000600480549050905090565b6000806002600084815260200190815260200160002060009054906101000a900473ffffffffffffffffffffffffffffffffffffffff169050600073ffffffffffffffffffffffffffffffffffffffff168173ffffffffffffffffffffffffffffffffffffffff1614156102d0576040517f08c379a00000000000000000000000000000000000000000000000000000000081526004016102c790610d17565b60405180910390fd5b80915050919050565b60008073ffffffffffffffffffffffffffffffffffffffff168273ffffffffffffffffffffffffffffffffffffffff16141561034a576040517f08c379a000000000000000000000000000000000000000000000000000000000815260040161034190610d17565b60405180910390fd5b600360008373ffffffffffffffffffffffffffffffffffffffff1673ffffffffffffffffffffffffffffffffffffffff168152602001908152602001600020549050919050565b600881815481106103a157600080fd5b9060005260206000200160009150905080546103bc90610c73565b80601f01602080910402602001604051908101604052809291908181526020018280546103e890610c73565b80156104355780601f1061040a57610100808354040283529160200191610435565b820191906000526020600020905b81548152906001019060200180831161041857829003601f168201915b505050505081565b60606001805461044c90610c73565b80601f016020809104026020016040519081016040528092919081815260200182805461047890610c73565b80156104c55780601f1061049a576101008083540402835291602001916104c5565b820191906000526020600020905b8154815290600101906020018083116104a857829003601f168201915b5050505050905090565b6009816040516104df9190610d73565b908152602001604051809103902060009054906101000a900460ff161561053b576040517f08c379a000000000000000000000000000000000000000000000000000000000815260040161053290610dfc565b60405180910390fd5b600881908060018154018082558091505060019003906000526020600020016000909190919091509080519060200190610576929190610812565b506000600160088054905061058b9190610e4b565b9050610597338261059b565b5050565b6105a582826105b2565b6105ae81610774565b5050565b600073ffffffffffffffffffffffffffffffffffffffff168273ffffffffffffffffffffffffffffffffffffffff161415610622576040517f08c379a000000000000000000000000000000000000000000000000000000000815260040161061990610ef1565b60405180910390fd5b61062b816107a0565b1561066b576040517f08c379a000000000000000000000000000000000000000000000000000000000815260040161066290610f5d565b60405180910390fd5b816002600083815260200190815260200160002060006101000a81548173ffffffffffffffffffffffffffffffffffffffff021916908373ffffffffffffffffffffffffffffffffffffffff1602179055506001600360008473ffffffffffffffffffffffffffffffffffffffff1673ffffffffffffffffffffffffffffffffffffffff168152602001908152602001600020600082825461070d9190610f7d565b92505081905550808273ffffffffffffffffffffffffffffffffffffffff16600073ffffffffffffffffffffffffffffffffffffffff167fddf252ad1be2c89b69c2b068fc378daa952ba7f163c4a11628f55a4df523b3ef60405160405180910390a45050565b600481908060018154018082558091505060019003906000526020600020016000909190919091505550565b6000806002600084815260200190815260200160002060009054906101000a900473ffffffffffffffffffffffffffffffffffffffff169050600073ffffffffffffffffffffffffffffffffffffffff168173ffffffffffffffffffffffffffffffffffffffff161415915050919050565b82805461081e90610c73565b90600052602060002090601f0160209004810192826108405760008555610887565b82601f1061085957805160ff1916838001178555610887565b82800160010185558215610887579182015b8281111561088657825182559160200191906001019061086b565b5b5090506108949190610898565b5090565b5b808211156108b1576000816000905550600101610899565b5090565b600081519050919050565b600082825260208201905092915050565b60005b838110156108ef5780820151818401526020810190506108d4565b838111156108fe576000848401525b50505050565b6000601f19601f8301169050919050565b6000610920826108b5565b61092a81856108c0565b935061093a8185602086016108d1565b61094381610904565b840191505092915050565b600060208201905081810360008301526109688184610915565b905092915050565b6000819050919050565b61098381610970565b82525050565b600060208201905061099e600083018461097a565b92915050565b6000604051905090565b600080fd5b600080fd5b6109c181610970565b81146109cc57600080fd5b50565b6000813590506109de816109b8565b92915050565b6000602082840312156109fa576109f96109ae565b5b6000610a08848285016109cf565b91505092915050565b600073ffffffffffffffffffffffffffffffffffffffff82169050919050565b6000610a3c82610a11565b9050919050565b610a4c81610a31565b82525050565b6000602082019050610a676000830184610a43565b92915050565b610a7681610a31565b8114610a8157600080fd5b50565b600081359050610a9381610a6d565b92915050565b600060208284031215610aaf57610aae6109ae565b5b6000610abd84828501610a84565b91505092915050565b600080fd5b600080fd5b7f4e487b7100000000000000000000000000000000000000000000000000000000600052604160045260246000fd5b610b0882610904565b810181811067ffffffffffffffff82111715610b2757610b26610ad0565b5b80604052505050565b6000610b3a6109a4565b9050610b468282610aff565b919050565b600067ffffffffffffffff821115610b6657610b65610ad0565b5b610b6f82610904565b9050602081019050919050565b82818337600083830152505050565b6000610b9e610b9984610b4b565b610b30565b905082815260208101848484011115610bba57610bb9610acb565b5b610bc5848285610b7c565b509392505050565b600082601f830112610be257610be1610ac6565b5b8135610bf2848260208601610b8b565b91505092915050565b600060208284031215610c1157610c106109ae565b5b600082013567ffffffffffffffff811115610c2f57610c2e6109b3565b5b610c3b84828501610bcd565b91505092915050565b7f4e487b7100000000000000000000000000000000000000000000000000000000600052602260045260246000fd5b60006002820490506001821680610c8b57607f821691505b60208210811415610c9f57610c9e610c44565b5b50919050565b7f6f776e657220717565727920666f72206e6f6e2d6578697374656e7420746f6b60008201527f656e000000000000000000000000000000000000000000000000000000000000602082015250565b6000610d016022836108c0565b9150610d0c82610ca5565b604082019050919050565b60006020820190508181036000830152610d3081610cf4565b9050919050565b600081905092915050565b6000610d4d826108b5565b610d578185610d37565b9350610d678185602086016108d1565b80840191505092915050565b6000610d7f8284610d42565b915081905092915050565b7f4572726f72202d206b727970746f4269726420616c726561647920657869737460008201527f7300000000000000000000000000000000000000000000000000000000000000602082015250565b6000610de66021836108c0565b9150610df182610d8a565b604082019050919050565b60006020820190508181036000830152610e1581610dd9565b9050919050565b7f4e487b7100000000000000000000000000000000000000000000000000000000600052601160045260246000fd5b6000610e5682610970565b9150610e6183610970565b925082821015610e7457610e73610e1c565b5b828203905092915050565b7f4552433732313a206d696e74696e6720746f20746865207a65726f206164647260008201527f6573730000000000000000000000000000000000000000000000000000000000602082015250565b6000610edb6023836108c0565b9150610ee682610e7f565b604082019050919050565b60006020820190508181036000830152610f0a81610ece565b9050919050565b7f4552433732313a20746f6b656e20616c7265616479206d696e74656400000000600082015250565b6000610f47601c836108c0565b9150610f5282610f11565b602082019050919050565b60006020820190508181036000830152610f7681610f3a565b9050919050565b6000610f8882610970565b9150610f9383610970565b9250827fffffffffffffffffffffffffffffffffffffffffffffffffffffffffffffffff03821115610fc857610fc7610e1c565b5b82820190509291505056fea26469706673582212208bc272cb189aca17b1485ba80de264a99f0f2d512ee37d090e7eb8afca72d5d964736f6c634300080b0033",
  "immutableReferences": {},
  "source": "// SPDX-License-Identifier: MIT\npragma solidity >=0.4.22 <0.9.0;\n\nimport './ERC721Connector.sol';\n\ncontract KryptoBird is ERC721Connector {\n\n    // array to store our nfts\n    string [] public kryptoBirdz;\n\n    mapping(string => bool) _kryptoBirdzExists;\n    \n    function mint(string memory _kryptoBird) public {\n        require(!_kryptoBirdzExists[_kryptoBird], 'Error - kryptoBird already exists');\n        // this is deprecated - uint _id = KryptoBirdz.push(_kryptoBird);\n        kryptoBirdz.push(_kryptoBird);\n        uint _id = kryptoBirdz.length - 1;\n        // .push no longer returns the length but a ref to the added element\n        _mint(msg.sender, _id);\n    }\n    \n    // initialize this contract to inherit name and symbol from erc732metadata\n    // so that the name is KryptoBird and the symbol is KBIRDZ\n    \n    constructor() ERC721Connector('KryptoBird', 'KBIRDZ') {\n\n    }\n}",
  "sourcePath": "/Users/jk/Documents/GitHub/nft-marketplace/src/contracts/KryptoBirdz.sol",
  "compiler": {
    "name": "solc",
    "version": "0.8.11+commit.d7f03943.Emscripten.clang"
  },
  "schemaVersion": "3.4.3",
  "updatedAt": "2022-01-18T06:47:42.978Z",
  "networkType": "ethereum",
  "devdoc": {
    "kind": "dev",
    "methods": {
      "balanceOf(address)": {
        "details": "NFTs assigned to the zero address are considered invalid, and this  function throws for queries about the zero address.",
        "params": {
          "_owner": "An address for whom to query the balance"
        },
        "returns": {
          "_0": "The number of NFTs owned by `_owner`, possibly zero"
        }
      },
      "ownerOf(uint256)": {
        "details": "NFTs assigned to zero address are considered invalid, and queries  about them do throw.",
        "params": {
          "_tokenId": "The identifier for an NFT"
        },
        "returns": {
          "_0": "The address of the owner of the NFT"
        }
      }
    },
    "version": 1
  },
  "userdoc": {
    "kind": "user",
    "methods": {
      "balanceOf(address)": {
        "notice": "Count all NFTs assigned to an owner"
      },
      "ownerOf(uint256)": {
        "notice": "Find the owner of an NFT"
      }
    },
    "version": 1
  }
}