{
  "contractName": "KryptoBird",
  "abi": [
    {
      "inputs": [],
      "stateMutability": "nonpayable",
      "type": "constructor"
    },
    {
      "anonymous": false,
      "inputs": [
        {
          "indexed": true,
          "internalType": "address",
          "name": "from",
          "type": "address"
        },
        {
          "indexed": true,
          "internalType": "address",
          "name": "to",
          "type": "address"
        },
        {
          "indexed": true,
          "internalType": "uint256",
          "name": "tokenId",
          "type": "uint256"
        }
      ],
      "name": "Transfer",
      "type": "event"
    },
    {
      "inputs": [
        {
          "internalType": "address",
          "name": "_owner",
          "type": "address"
        }
      ],
      "name": "balanceOf",
      "outputs": [
        {
          "internalType": "uint256",
          "name": "",
          "type": "uint256"
        }
      ],
      "stateMutability": "view",
      "type": "function",
      "constant": true
    },
    {
      "inputs": [
        {
          "internalType": "uint256",
          "name": "",
          "type": "uint256"
        }
      ],
      "name": "kryptoBirdz",
      "outputs": [
        {
          "internalType": "string",
          "name": "",
          "type": "string"
        }
      ],
      "stateMutability": "view",
      "type": "function",
      "constant": true
    },
    {
      "inputs": [],
      "name": "name",
      "outputs": [
        {
          "internalType": "string",
          "name": "",
          "type": "string"
        }
      ],
      "stateMutability": "view",
      "type": "function",
      "constant": true
    },
    {
      "inputs": [
        {
          "internalType": "uint256",
          "name": "_tokenId",
          "type": "uint256"
        }
      ],
      "name": "ownerOf",
      "outputs": [
        {
          "internalType": "address",
          "name": "",
          "type": "address"
        }
      ],
      "stateMutability": "view",
      "type": "function",
      "constant": true
    },
    {
      "inputs": [],
      "name": "symbol",
      "outputs": [
        {
          "internalType": "string",
          "name": "",
          "type": "string"
        }
      ],
      "stateMutability": "view",
      "type": "function",
      "constant": true
    },
    {
      "inputs": [
        {
          "internalType": "uint256",
          "name": "index",
          "type": "uint256"
        }
      ],
      "name": "tokenByIndex",
      "outputs": [
        {
          "internalType": "uint256",
          "name": "",
          "type": "uint256"
        }
      ],
      "stateMutability": "view",
      "type": "function",
      "constant": true
    },
    {
      "inputs": [
        {
          "internalType": "address",
          "name": "owner",
          "type": "address"
        },
        {
          "internalType": "uint256",
          "name": "index",
          "type": "uint256"
        }
      ],
      "name": "tokenOfOwnerByIndex",
      "outputs": [
        {
          "internalType": "uint256",
          "name": "",
          "type": "uint256"
        }
      ],
      "stateMutability": "view",
      "type": "function",
      "constant": true
    },
    {
      "inputs": [],
      "name": "totalSupply",
      "outputs": [
        {
          "internalType": "uint256",
          "name": "",
          "type": "uint256"
        }
      ],
      "stateMutability": "view",
      "type": "function",
      "constant": true
    },
    {
      "inputs": [
        {
          "internalType": "string",
          "name": "_kryptoBird",
          "type": "string"
        }
      ],
      "name": "mint",
      "outputs": [],
      "stateMutability": "nonpayable",
      "type": "function"
    }
  ],
  "bytecode": "0x60806040523480156200001157600080fd5b506040518060400160405280600a81526020017f4b727970746f42697264000000000000000000000000000000000000000000008152506040518060400160405280600681526020017f4b424952445a00000000000000000000000000000000000000000000000000008152508181816000908051906020019062000098929190620000bc565b508060019080519060200190620000b1929190620000bc565b5050505050620001d1565b828054620000ca906200019b565b90600052602060002090601f016020900481019282620000ee57600085556200013a565b82601f106200010957805160ff19168380011785556200013a565b828001600101855582156200013a579182015b82811115620001395782518255916020019190600101906200011c565b5b5090506200014991906200014d565b5090565b5b80821115620001685760008160009055506001016200014e565b5090565b7f4e487b7100000000000000000000000000000000000000000000000000000000600052602260045260246000fd5b60006002820490506001821680620001b457607f821691505b60208210811415620001cb57620001ca6200016c565b5b50919050565b6113d280620001e16000396000f3fe608060405234801561001057600080fd5b50600436106100935760003560e01c80636352211e116100665780636352211e1461013457806370a082311461016457806393ab6e561461019457806395d89b41146101c4578063d85d3d27146101e257610093565b806306fdde031461009857806318160ddd146100b65780632f745c59146100d45780634f6ccce714610104575b600080fd5b6100a06101fe565b6040516100ad9190610bd0565b60405180910390f35b6100be610290565b6040516100cb9190610c0b565b60405180910390f35b6100ee60048036038101906100e99190610cc4565b61029d565b6040516100fb9190610c0b565b60405180910390f35b61011e60048036038101906101199190610d04565b61034d565b60405161012b9190610c0b565b60405180910390f35b61014e60048036038101906101499190610d04565b6103be565b60405161015b9190610d40565b60405180910390f35b61017e60048036038101906101799190610d5b565b610470565b60405161018b9190610c0b565b60405180910390f35b6101ae60048036038101906101a99190610d04565b610528565b6040516101bb9190610bd0565b60405180910390f35b6101cc6105d4565b6040516101d99190610bd0565b60405180910390f35b6101fc60048036038101906101f79190610ebd565b610666565b005b60606000805461020d90610f35565b80601f016020809104026020016040519081016040528092919081815260200182805461023990610f35565b80156102865780601f1061025b57610100808354040283529160200191610286565b820191906000526020600020905b81548152906001019060200180831161026957829003601f168201915b5050505050905090565b6000600480549050905090565b60006102a883610470565b82106102e9576040517f08c379a00000000000000000000000000000000000000000000000000000000081526004016102e090610fb3565b60405180910390fd5b600660008473ffffffffffffffffffffffffffffffffffffffff1673ffffffffffffffffffffffffffffffffffffffff168152602001908152602001600020828154811061033a57610339610fd3565b5b9060005260206000200154905092915050565b6000610357610290565b8210610398576040517f08c379a000000000000000000000000000000000000000000000000000000000815260040161038f9061104e565b60405180910390fd5b600482815481106103ac576103ab610fd3565b5b90600052602060002001549050919050565b6000806002600084815260200190815260200160002060009054906101000a900473ffffffffffffffffffffffffffffffffffffffff169050600073ffffffffffffffffffffffffffffffffffffffff168173ffffffffffffffffffffffffffffffffffffffff161415610467576040517f08c379a000000000000000000000000000000000000000000000000000000000815260040161045e906110e0565b60405180910390fd5b80915050919050565b60008073ffffffffffffffffffffffffffffffffffffffff168273ffffffffffffffffffffffffffffffffffffffff1614156104e1576040517f08c379a00000000000000000000000000000000000000000000000000000000081526004016104d8906110e0565b60405180910390fd5b600360008373ffffffffffffffffffffffffffffffffffffffff1673ffffffffffffffffffffffffffffffffffffffff168152602001908152602001600020549050919050565b6008818154811061053857600080fd5b90600052602060002001600091509050805461055390610f35565b80601f016020809104026020016040519081016040528092919081815260200182805461057f90610f35565b80156105cc5780601f106105a1576101008083540402835291602001916105cc565b820191906000526020600020905b8154815290600101906020018083116105af57829003601f168201915b505050505081565b6060600180546105e390610f35565b80601f016020809104026020016040519081016040528092919081815260200182805461060f90610f35565b801561065c5780601f106106315761010080835404028352916020019161065c565b820191906000526020600020905b81548152906001019060200180831161063f57829003601f168201915b5050505050905090565b600981604051610676919061113c565b908152602001604051809103902060009054906101000a900460ff16156106d2576040517f08c379a00000000000000000000000000000000000000000000000000000000081526004016106c9906111c5565b60405180910390fd5b60088190806001815401808255809150506001900390600052602060002001600090919091909150908051906020019061070d929190610a94565b50600060016008805490506107229190611214565b905061072e3382610732565b5050565b61073c8282610753565b61074581610915565b61074f828261095e565b5050565b600073ffffffffffffffffffffffffffffffffffffffff168273ffffffffffffffffffffffffffffffffffffffff1614156107c3576040517f08c379a00000000000000000000000000000000000000000000000000000000081526004016107ba906112ba565b60405180910390fd5b6107cc81610a22565b1561080c576040517f08c379a000000000000000000000000000000000000000000000000000000000815260040161080390611326565b60405180910390fd5b816002600083815260200190815260200160002060006101000a81548173ffffffffffffffffffffffffffffffffffffffff021916908373ffffffffffffffffffffffffffffffffffffffff1602179055506001600360008473ffffffffffffffffffffffffffffffffffffffff1673ffffffffffffffffffffffffffffffffffffffff16815260200190815260200160002060008282546108ae9190611346565b92505081905550808273ffffffffffffffffffffffffffffffffffffffff16600073ffffffffffffffffffffffffffffffffffffffff167fddf252ad1be2c89b69c2b068fc378daa952ba7f163c4a11628f55a4df523b3ef60405160405180910390a45050565b6004805490506005600083815260200190815260200160002081905550600481908060018154018082558091505060019003906000526020600020016000909190919091505550565b600660008373ffffffffffffffffffffffffffffffffffffffff1673ffffffffffffffffffffffffffffffffffffffff168152602001908152602001600020805490506007600083815260200190815260200160002081905550600660008373ffffffffffffffffffffffffffffffffffffffff1673ffffffffffffffffffffffffffffffffffffffff1681526020019081526020016000208190806001815401808255809150506001900390600052602060002001600090919091909150555050565b6000806002600084815260200190815260200160002060009054906101000a900473ffffffffffffffffffffffffffffffffffffffff169050600073ffffffffffffffffffffffffffffffffffffffff168173ffffffffffffffffffffffffffffffffffffffff161415915050919050565b828054610aa090610f35565b90600052602060002090601f016020900481019282610ac25760008555610b09565b82601f10610adb57805160ff1916838001178555610b09565b82800160010185558215610b09579182015b82811115610b08578251825591602001919060010190610aed565b5b509050610b169190610b1a565b5090565b5b80821115610b33576000816000905550600101610b1b565b5090565b600081519050919050565b600082825260208201905092915050565b60005b83811015610b71578082015181840152602081019050610b56565b83811115610b80576000848401525b50505050565b6000601f19601f8301169050919050565b6000610ba282610b37565b610bac8185610b42565b9350610bbc818560208601610b53565b610bc581610b86565b840191505092915050565b60006020820190508181036000830152610bea8184610b97565b905092915050565b6000819050919050565b610c0581610bf2565b82525050565b6000602082019050610c206000830184610bfc565b92915050565b6000604051905090565b600080fd5b600080fd5b600073ffffffffffffffffffffffffffffffffffffffff82169050919050565b6000610c6582610c3a565b9050919050565b610c7581610c5a565b8114610c8057600080fd5b50565b600081359050610c9281610c6c565b92915050565b610ca181610bf2565b8114610cac57600080fd5b50565b600081359050610cbe81610c98565b92915050565b60008060408385031215610cdb57610cda610c30565b5b6000610ce985828601610c83565b9250506020610cfa85828601610caf565b9150509250929050565b600060208284031215610d1a57610d19610c30565b5b6000610d2884828501610caf565b91505092915050565b610d3a81610c5a565b82525050565b6000602082019050610d556000830184610d31565b92915050565b600060208284031215610d7157610d70610c30565b5b6000610d7f84828501610c83565b91505092915050565b600080fd5b600080fd5b7f4e487b7100000000000000000000000000000000000000000000000000000000600052604160045260246000fd5b610dca82610b86565b810181811067ffffffffffffffff82111715610de957610de8610d92565b5b80604052505050565b6000610dfc610c26565b9050610e088282610dc1565b919050565b600067ffffffffffffffff821115610e2857610e27610d92565b5b610e3182610b86565b9050602081019050919050565b82818337600083830152505050565b6000610e60610e5b84610e0d565b610df2565b905082815260208101848484011115610e7c57610e7b610d8d565b5b610e87848285610e3e565b509392505050565b600082601f830112610ea457610ea3610d88565b5b8135610eb4848260208601610e4d565b91505092915050565b600060208284031215610ed357610ed2610c30565b5b600082013567ffffffffffffffff811115610ef157610ef0610c35565b5b610efd84828501610e8f565b91505092915050565b7f4e487b7100000000000000000000000000000000000000000000000000000000600052602260045260246000fd5b60006002820490506001821680610f4d57607f821691505b60208210811415610f6157610f60610f06565b5b50919050565b7f6f776e657220696e646578206973206f7574206f6620626f756e647321000000600082015250565b6000610f9d601d83610b42565b9150610fa882610f67565b602082019050919050565b60006020820190508181036000830152610fcc81610f90565b9050919050565b7f4e487b7100000000000000000000000000000000000000000000000000000000600052603260045260246000fd5b7f676c6f62616c20696e646578206973206f7574206f6620626f756e6473210000600082015250565b6000611038601e83610b42565b915061104382611002565b602082019050919050565b600060208201905081810360008301526110678161102b565b9050919050565b7f6f776e657220717565727920666f72206e6f6e2d6578697374656e7420746f6b60008201527f656e000000000000000000000000000000000000000000000000000000000000602082015250565b60006110ca602283610b42565b91506110d58261106e565b604082019050919050565b600060208201905081810360008301526110f9816110bd565b9050919050565b600081905092915050565b600061111682610b37565b6111208185611100565b9350611130818560208601610b53565b80840191505092915050565b6000611148828461110b565b915081905092915050565b7f4572726f72202d206b727970746f4269726420616c726561647920657869737460008201527f7300000000000000000000000000000000000000000000000000000000000000602082015250565b60006111af602183610b42565b91506111ba82611153565b604082019050919050565b600060208201905081810360008301526111de816111a2565b9050919050565b7f4e487b7100000000000000000000000000000000000000000000000000000000600052601160045260246000fd5b600061121f82610bf2565b915061122a83610bf2565b92508282101561123d5761123c6111e5565b5b828203905092915050565b7f4552433732313a206d696e74696e6720746f20746865207a65726f206164647260008201527f6573730000000000000000000000000000000000000000000000000000000000602082015250565b60006112a4602383610b42565b91506112af82611248565b604082019050919050565b600060208201905081810360008301526112d381611297565b9050919050565b7f4552433732313a20746f6b656e20616c7265616479206d696e74656400000000600082015250565b6000611310601c83610b42565b915061131b826112da565b602082019050919050565b6000602082019050818103600083015261133f81611303565b9050919050565b600061135182610bf2565b915061135c83610bf2565b9250827fffffffffffffffffffffffffffffffffffffffffffffffffffffffffffffffff03821115611391576113906111e5565b5b82820190509291505056fea264697066735822122078e426e68fbfd35be626b05b8a7ccacb9466a3fb61ea769428943d0fed7bc94064736f6c634300080b0033",
  "immutableReferences": {},
  "source": "// SPDX-License-Identifier: MIT\npragma solidity >=0.4.22 <0.9.0;\n\nimport './ERC721Connector.sol';\n\ncontract KryptoBird is ERC721Connector {\n\n    // array to store our nfts\n    string [] public kryptoBirdz;\n\n    mapping(string => bool) _kryptoBirdzExists;\n    \n    function mint(string memory _kryptoBird) public {\n        require(!_kryptoBirdzExists[_kryptoBird], 'Error - kryptoBird already exists');\n        // this is deprecated - uint _id = KryptoBirdz.push(_kryptoBird);\n        kryptoBirdz.push(_kryptoBird);\n        uint _id = kryptoBirdz.length - 1;\n        // .push no longer returns the length but a ref to the added element\n        _mint(msg.sender, _id);\n    }\n    \n    // initialize this contract to inherit name and symbol from erc732metadata\n    // so that the name is KryptoBird and the symbol is KBIRDZ\n    \n    constructor() ERC721Connector('KryptoBird', 'KBIRDZ') {\n\n    }\n}",
  "sourcePath": "/Users/jk/Documents/GitHub/nft-marketplace/src/contracts/KryptoBirdz.sol",
  "compiler": {
    "name": "solc",
    "version": "0.8.11+commit.d7f03943.Emscripten.clang"
  },
  "schemaVersion": "3.4.3",
  "updatedAt": "2022-01-18T07:19:46.837Z",
  "networkType": "ethereum",
  "devdoc": {
    "kind": "dev",
    "methods": {
      "balanceOf(address)": {
        "details": "NFTs assigned to the zero address are considered invalid, and this  function throws for queries about the zero address.",
        "params": {
          "_owner": "An address for whom to query the balance"
        },
        "returns": {
          "_0": "The number of NFTs owned by `_owner`, possibly zero"
        }
      },
      "ownerOf(uint256)": {
        "details": "NFTs assigned to zero address are considered invalid, and queries  about them do throw.",
        "params": {
          "_tokenId": "The identifier for an NFT"
        },
        "returns": {
          "_0": "The address of the owner of the NFT"
        }
      }
    },
    "version": 1
  },
  "userdoc": {
    "kind": "user",
    "methods": {
      "balanceOf(address)": {
        "notice": "Count all NFTs assigned to an owner"
      },
      "ownerOf(uint256)": {
        "notice": "Find the owner of an NFT"
      }
    },
    "version": 1
  }
}